:2000000000900020C1430000F73E0000E73A0000FF3B0000FF3B0000FF3B0000FF3B0000EE
:20002000FF3B0000FF3B0000FF3B0000FF3B0000FF3B0000FF3B0000FF3B0000FF3B0000F0
:20004000FF3B0000FF3B0000FF3B0000FF3B0000FF3B0000FF3B0000FF3B0000FF3B0000D0
:20006000FF3B0000FF3B0000FF3B0000FF3B0000FF3B0000FF3B0000FF3B0000FF3B0000B0
:0C008000FF3B0000FF3B0000FF3B0000C6
:20008C00F0B58DB00446C26A016C03F0EEFCE16F4A1C904201D93526AAE1002813D08800D7
:2000AC00226C17180837891C384604F0A0F9A168384604F0C1F8002807D0E56F691C8842B2
:2000CC0005D9C62694E1532692E16C2690E121786626022900D28BE1052900D988E10126C1
:2000EC000329334600D30023216C0A6832405A400C968026A2510990E06720463A460B46FC
:20010C0002F024FD20784000001F0C9F39468140A151216C20460A4603F034FDE567E16CEC
:20012C0020463A4604F093F8A36FE56F626EA06EE16C0095B04DA847A36FE66FA26EE06E77
:20014C00E16C0096A847A36FE66FA06EE26EE16C0096A847226B216F204603F086FCE56FDE
:20016C00A84201D93C2643E100280FD0A36FE26E216F606C04F0D6F9626B216F204603F0EB
:20018C0074FCE56FA84203D9652631E1C3262FE1064600280FD0A36FA26E216FA06C04F02E
:2001AC00C1F9E268E16E204603F05FFCE56FAE4203D95C261CE156261AE126468036A36FE2
:2001CC00A26EE16E206F04F0ADF9A36FE56FE26C206D216F04F0A6F9E06F421C0B96326047
:2001EC00666D00252778B81E0123194681408D4209DA616C304604F0E5F80B9802689000DF
:20020C0036186D1CEEE70C93A06D00250B9EBB1E0C9999408D4206DAA16C074604F0D2F88E
:20022C0004F0D7F8F3E7E06D0025BB1E0C9999408D4206DAE16C074604F0C4F804F0C9F89E
:20024C00F3E70A9709984001421C216C08788007C60F00200890099003460C9F0292BA4299
:20026C0072D93D4637460793501B0A9EB04232460B9B00D802461A6020462A4603F07EFB8E
:20028C0009994018C1B2731E012632469A4091420C9501DA084600E04042914206963546F2
:2002AC0000DA002529460A9A914008180006800D001F04218843FEB2B7005249C919089A07
:2002CC0052008918495D89004F4A925D891808180B990860204600F0A3F86A0005924B4816
:2002EC000497C1198918099A8A5C4948C11920780A90801E0390095C0C9F7F181F233B4021
:20030C0079098D00216C4D59DD40069805400992554005235D430A2070433E4A10184019B1
:20032C00142575433C4A5519039A5343EA18079BD35CC65C3948049A8018059A8018089A14
:20034C00825C0892029A8AE7099801280A9810D108988000C01C0B9E3060284D2046A847C0
:20036C00012030602046A847022030602046A8472078992603283BD3811E01200C908840B0
:20038C00FE300021C9430A910B9D0C992960C7B2002F11D07A1C2046394601F029F80C98CB
:2003AC0028602078801E0A998140C94320463A4601F01EF8781EE8E72078801E0A9F394653
:2003CC008140CA430021099120460D4B98470C9828602078801E8740FA432046099F3946F8
:2003EC00074B98470C9A2A6020463946044B984730460DB0F0BDC046810700002D040000DE
:20040C00FD130000CA4800006C4900009A480000B2480000CF4600004C450000E24800004D
:20042C00F0B589B00446802025580395E06DE26F616F636C08930791E908531C4B43D9B2EA
:20044C008F00C0190690A807060F05A88159A36F206E0092C44D0A46A847E06E616E08910F
:20046C000790069105A88059A36FE26FA16C0092BE4D0A46A847E06E216FA26C636E089318
:20048C000791069205A98959E26D236EE56C08950793D2190497069205AA04F00FF8B24D61
:2004AC00A847606EE16EE26C06AB07C305A88059E26F521C03F086FFE06E216F0890079190
:2004CC00069005A88059A36FE26F216E00920A46A64DA847206FA16E08910790069005A82D
:2004EC008059A16D226E636E08930792C919069105A98959A26CE36C656F0892079506936B
:20050C0005AA03F0DBFF984DA847206E616F08910790069105A88059A36FA16EE26F0092D0
:20052C000A46924DA847234660330ECB08920791069305A88759E56C606F08900795069179
:20054C0005A9895908930790069205A88259A36FE06F00903846844DA847226E606E616F50
:20056C0006AB07C305A88559A36FE16EE06F009028467E4FB847A36FE06F226D216E0090E0
:20058C002846B847E06C616E226E06AB07C305A88159E06E626FA36E06AD0DC505A88059FA
:2005AC00A36FE26F00920A466F4DA847616EA26DE56E0895049FD2190792069105A9885924
:2005CC000290216F226E636F08930792069105A98959E26D636C0893D2190792069505AAA9
:2005EC0003F06CFF604DA847606EE16DE26E0892C9190791069005A88059E16F4A1C029908
:20060C0003F0E0FEE06E216D08910790069105A88159206E226F08920790069205A8805965
:20062C00A36FE26F00920A46504DA847606E616FA26E06AB07C305A88059216EE36E0893B3
:20064C000791069205A98A59A36FE16F0091484D0146A847226F216E206D0890079106929A
:20066C0005A88059636E06AD0EC505A98959636CA76E08920797069305AA03F01AFF3A4D0A
:20068C00A847616F606D626C0892049D40190790069105A88059A26E08920791069205A924
:2006AC008959226FE36E08930792069305AA03F000FF2F4FB847E16E606F0890079106909B
:2006CC0005A88059626D636C089352190792069305AA03F0EEFE264FB847616FA06EE26E82
:2006EC0008920790069105A88059636D089107925919069105A98959636E276E0897079366
:20070C00069205AA03F0D5FE174FB847616FA06DA26C089240190790069105A88059049035
:20072C00A06EE26E636E079306920425039F3D402D1D05AF7F5908970790069105A88159DA
:20074C00206F276E0792069305AA525908920797069005A88259A36FE06F00900498044CAA
:20076C00A04709B0F0BDC0468107000025090000AD090000F8B444464D4656465F46F0B400
:20078C0000B501B40B9B5B005B1C6C469B00E31A9D4610B46C46241D00266D46009CE36AC5
:2007AC002D1D9B00EE505B00EE50E36A013B9B0098465B009946002300240025002702E0C0
:2007CC00370040463F1A9A46A346AC46B646F01B1458C859030C80B2250CA4B21E006E4311
:2007EC006343454360431C041B0C00195E412C042D0C00196E4153465C4665461B1874411E
:20080C000020454176460437474501DCB742DADD6846001D835123462C46002504364645B2
:20082C00CCDD4E45CCDD8351009B9969083102464E4604361068009B9C6924684443A146F5
:20084C0000270023002400259A46A346AC46B6464C46C859030C80B2250CA4B21E006E43F8
:20086C006343454360431C041B0C00195E412C042D0C00196E4153465C4665461B1874419D
:20088C0000204541D0591B18002044414541002F02D0043FD35104370437764623462C46AA
:2008AC0000254745D0DD301D8742EBDD043FD351043E464500DDBDE710BC2068E36A9B46B9
:2008CC00024691466846012720C840C97F08B5417F4120C2013BF7D105682F430126F741C5
:2008EC00FF17FE4368463840494631400843494639406D46354029435B4604C904C0013B1A
:20090C00FBD1A54603BC8E46F0BCA046A946B246BB46F8BC7047C046F0B444464D46564639
:20092C0070B48146079CA246002720C940CA7F0875417F4120C0013CF7D1B8464846083372
:20094C0054466A46A400141BA54604B46A46121D5446012720C840CB7F08B5417F4120C218
:20096C00013CF7D1424617430126F741FF17FE4348466946091D0D46384031400843494655
:20098C0031403D402943544604C904C0013CFBD101BC854670BCA046A946B246F0BC7047D9
:2009AC00F0B444464D46564670B48146079CA246012720C940CA7F08B5417F4120C0013CE3
:2009CC00F7D1B8464846083354466A46A400141BA54604B46A46121D5446002720C840CB29
:2009EC007F0875417F4120C2013CF7D147460126F741FF17FE4348466946091D0D4630409E
:200A0C00394008434946394035402943544604C904C0013CFBD101BC854670BCA046A94660
:200A2C00B246F0BC7047C046F0B444464D4630B4884699466C469B00E31A9D4610B46C4654
:200A4C00241D4B460832012720C940CA7F08B5417F4120C4013BF7D16A46121D0125EF4109
:200A6C00FF17FD43414629403A4011434B4610C910C0013BFBD101BC854630BCA046A946CB
:200A8C00F0BC7047F0B58FB00E9316460D9104468168856A284603F0C0FAE067002804D0E8
:200AAC000746FF2803D9282043E16C2041E1287AC00701D182203CE1781C810068580028C9
:200ACC0039D0099615980B9020460E460C9129463A4601F0B5FBF80008954519083520469D
:200AEC00294601F017FCA36FE06F0090A819061D304629462A46FFF70FFFE06F4001802118
:200B0C0060500C983018011D20460A9632460E462B4601F007FF0146E06F421C284603F080
:200B2C0051FC204631460B9A02F09FFFE26F904203D92220FDE02320FBE0002833D00C983F
:200B4C0030180690314607960B9525468035A36F00920A9E30460B9AFFF70CFE2078801E3A
:200B6C000321059181400C31049529602046314600F026FD0146E06F421C304603F022FC24
:200B8C00A36FE06F00900798069D31460B9AFFF7F1FD204629460E9A02F067FFE16F884227
:200BAC0003D92720C5E02120C3E000282DD02E46149803900C9828180E90A36F00910B9DD8
:200BCC0028463146079AFFF7D5FD01222046314603F03DFBA36FE06F00900E982946324612
:200BEC00FFF7C8FDE16F02C5A26FE36F029528460E99FFF719FF20463146039A02F035FF5A
:200C0C00E16F884203D9112093E0722091E0002800D18DE00C9A0E988018801880180C9015
:200C2C00A36F00910A9E3046069D2946079AFFF7A1FD01222046294603F009FBA36FE06F50
:200C4C0000900E9831462A46FFF794FDE16F3046079E02C0A26FE36F01900E99FFF7E4FE44
:200C6C006069A1690C9AA2620B9DE56220636163204601F0F3F999285BD103F04EFB4118F0
:200C8C000C31304603F09EFB03F0E8F941180C31069803F097FB2046FFF7F2F9992848D15B
:200CAC0020460E9902F0A6FF0A98E0620D9820630998606303F031FB40180C30314603F0F7
:200CCC0081FB03F0CBF940180C30069903F07AFB2046FFF7D5F999282BD178000D9002201C
:200CEC00049908600026204631460E9A00F080FBA5630A98E063204601F040F8089DA562A5
:200D0C00E76FA168284603F088F90246E0672046294601F095FA0D983818800040190C3098
:200D2C00791CE26F531C994206D240C0491CF8E71220C0B20FB0F0BD0A9D2A60A26FE36FB7
:200D4C0001980299FFF770FEE06F421C2846039903F0EAF901465A200029EAD0C043E8E7EC
:200D6C00F0B58FB0049104469648006807906021204603F0D3F994482065944860620025FD
:200D8C00EF4308942034944E022D12D00020294603F034FBC0B2214602F048FD07460028FC
:200DAC0004D08C4831468A4A02F064FD2C346D1CEAE7089E304603F05BF8002807D10025A0
:200DCC00304629462A4602F0F7FD002829D058200121315409A8C17100243046214601F0B7
:200DEC00B7F97E490968079088420AD1049A16600C940B940A940994306A417811714068B8
:200E0C0090603C464C2528460C3004D0705903F015F92C3DF7E7002C079800D020460FB094
:200E2C00F0BD304601F032FD0028D0D009A88571FF242146023181800C950B95012009903B
:200E4C00284601F085FC0346801E022810D80121304606941C4601F07BF92346069C5F4901
:200E6C000968884204D0012801D1034600E005235820335409A8C37132465832D8B2811EFC
:200E8C00032939D2029201270EA9384602F0CEFC534C002804D04F484F49224602F0EAFC58
:200EAC00039502200DA902F0C1FC002804D0221D4848494902F0DEFCB06A00210422002855
:200ECC0020D0069026460898406A059284580E980D46224601F0FAFD002805D032460A325D
:200EEC003C483D4902F0C6FC294661190698401E059A08323446E2E701284AD0052848D09F
:200F0C0014704CE00E9A08460D9900230093019002F030FA00280FD02E4C2F4D314A204638
:200F2C00294602F0A7FC2A4A40322046294602F0A1FC089E039D2AE0089E306D42680D9875
:200F4C000027394601F0C2FD002805D0224659322048214902F08EFC306D716DC90009188C
:200F6C0008390B684A680068191A0D9801F0AEFD0028039D05D0613416481749224602F0D9
:200F8C0079FC0E9803F05AF80D9803F057F802980378D8B2012800D11EE7FF2806D10C4A0C
:200FAC00573211480C4902F065FCFEE709AA3046294602F001FD044600282F4600D021E76F
:200FCC000AE7C04660360020D027002000200020BF060000C4450000CC4500006436002068
:200FEC0093030000440500002D460000F0B5FFB090B01D460E920F460C900468204603F046
:20100C000BFA2118FF2007900246FC320FA805928218531C04930192921C0892401C0290A3
:20102C0008460026F2430D92949A06920991844200D3D8E0641C0D98205C002800D1D2E05F
:20104C00252806D00C990C600E99A847641C761CF1E7601C0C9908602478732C11D110CF4B
:20106C00002C2CD00A970B95204603F0D5F907460025BD421FDA605D0E990B9A90476D1C01
:20108C00F7E70799FE310FA8202203F03FF80021089803910170252C50D0632C0B9552D0EC
:2010AC00642C03D0782C01D06F2C55D10A976F2C09D00A2708E0BE190B9D0A9F83E00020B2
:2010CC000E99A8477FE00827782C00D1102701200090642C7DD06F2C03D0782C01D0702C27
:2010EC0006D10A9810C80A90002C01D0049D1AE03020049908700024019D14E0102F03D034
:20110C00082F03D1E00805E0200903E02046394602F014FC39464143611A354A515C2970B5
:20112C000D996D180446002CE8D10098002803D12D2028700D982D180A9F0EE00FA8252152
:20114C000180012238E001CF04990870C0B2414241410391019D00E0049D0898401B0FAC02
:20116C0000280A9701DC201A441C691C0598C31C002720463A4602F008FF0399002901D086
:20118C000770401C0B9D0FA9884209D80D9943180299091A2022184602F0B8FF0FA807702F
:2011AC000FAFE11B2022384602F0B0FF384603F033F9039942180A9F0FA80E99069B9847EE
:2011CC00411C0FD08619701C0CD00C98046809982DE70A9810C80A90002C85D5644200209B
:2011EC00009083E70D9E30467FB010B0F0BDC04678480000F0B5C1B0079314467748006835
:20120C00029002F0D1FF4898002804D04999012901DB02F0D5FF4A98039047980690469F15
:20122C002089E168081804946189401800260590B04214D9801B069CA04200D8044607983C
:20124C0031463A46234601F065FF002800D0AEE03846214602F0B4FFA6190598E8E708A8E2
:20126C0002F096FF01F073FA0398002803D008A9202203F04FF90026009630A8584B0499E5
:20128C00079A01F0B5FA0546002800D092E0554800680690F7433C4605960396264630A87D
:2012AC0038A937AA36AB01F0ADF9002800D584E000D084E036A8008822281ED1002E3C4604
:2012CC00ECD4069886423C46E8DA37A80388802B00D97CE0389910AA079801F01BFF0028F1
:2012EC006BD137A80388F0B2009008A8202110AA00F03EFC02903C46D0E701281CD010281D
:20130C003446CBD137A80088202860D1389910AA2023079801F0FEFE00284ED108A810A9C1
:20132C00202203F0EBF805462F4800680121059185423446B2D03DE037A80388202B46D8F4
:20134C00389910AA079801F0E5FE002835D137A80578202D3C46A1D8039C04950698844215
:20136C001FDAE00021490D580818466802F01CFF31682846049D02F023FF39A802F008FF48
:20138C00002D10D010A839A92A4603780E789E4205D1521E491C401C002AF6D104E0641CED
:2013AC00DCE73C4600E0002401F0D1F976E7054601F0CDF9284641B0F0BD0546FAE70598E9
:2013CC00002806D008480068029F874203D13D46F0E70125EEE701480568EBE7603600207A
:2013EC00FFFF000074490000643600205C490000FEB51646044680202058E76F7A1C022840
:20140C0008D001280CD0002815D1666CA06C0190E06C03E0900033180193181802900DE019
:20142C005643B000636DA66DE56D2D180295351801951E1802E0002601960296A36FE06E96
:20144C00E56D009751438F00E9195B4D0A46A847A36FE16FE26E206E00913146A84702F062
:20146C00BFFF0199A8472E46A36FE56FE26E216F606E0095B0473546A36FE16FE06E009149
:20148C00029E31463246A847A36FE16FE26E206F656D0091E919484DA847474DA36FE06FA3
:2014AC00616DA26D0090C819D1193246A847A36FE06FE26E616DA56D0090E819C9193E4DF2
:2014CC00A847A36FE06F226E216F656D0090E8193A4DA84702F084FF3146374EB047A36F3D
:2014EC00E06F226F616DE56D0090E819C919B047A36FE16F626E206FA56D0091E9192F4D94
:20150C00A847A36FE16FE06E626D0091D1190A46B047A36FE26F216FA06E00920A46B047B5
:20152C00A36FE06FE26E216EA56D0090E819B047A36FE26FE16E206E656D0092EA19B04727
:20154C00A36FE16F226EA06E009101461B4EB047A36FE16FE06EA26D0091D1190A46FFF7C7
:20156C00DBF9A36FE06FA16EE26E656D0090E819B047A36FE16FA06E626DA56D0091E9198D
:20158C00D219B047216F2546743529CDA26E0095094EB047A36FE56F226E616EE06E009528
:2015AC00B047616FA36FE06FE26EA46D0090E019024CA047FEBDC04681070000AD090000D9
:2015CC00F0B589B00391C16F082901D3052600E00426032900D20326024680320892002246
:2015EC000123079008981CB2A64209D3641E0125A540EC1C0568A54200D31A465B1CF2E786
:20160C00D0B2441E01274B1C9A00A3409B00039DEB1804939E18B21806920290022807D34B
:20162C000798836F0091069829462A46FFF7A2F83846A04005902C46079D38B2059981421B
:20164C000FDDAB6FE86F009080000019001D2146069AFFF78FF8E86F80000019041D7F1CAB
:20166C00EBE7A86F8468A01E08990860284606990F4602F03FFF611E484248410121EA6F23
:20168C000BB29A4210D9AC6F9A0013199B68C4B2012C06D10020002B01D05B1E01E0C343E2
:2016AC000120BB50491CEAE7521C0498039902F089FEA96FE86F820051184A6800213B46EF
:2016CC00002A02D0491C5208FAE74001411822390498044608B200284FD41F2008408AB2BF
:2016EC000F46510989005958C140C80738D005970898029901602846194601F073FD049023
:20170C0000252746E8B20899096881420CD90798836FC06F0090304639463A46FFF72AF8FA
:20172C006D1C34463E46ECE7079DAB6FE86F00900499491E8AB2D20B8918490889B2401CF8
:20174C004843800003990A1830463946FFF712F8089800880599091A30463E46069BB8E79C
:20176C00AB6FE86F0090304621462246FFF702F8069B791E30462646ABE7E86F421C039D26
:20178C002846214602F01EFE284609B0F0BD7047F0B58FB00D920C910446406802F0C0FE0D
:2017AC00A56A861CB101284602F0B8FC6168284602F033FC02460E902046294600F040FD66
:2017CC00B600AD19594A28460C999047AF1938460D99564A90470B96B8190D9461680C9019
:2017EC00524A90470E9E2846314602F051FD002801D0132098E03846314602F049FD0028A0
:20180C0001D0142090E009970B9F0C9BD8190590C0190890C019C019C0190490C0190790D0
:20182C00C0192C460690C519E9190D980A91224601F0C2F801461120012975D10294039572
:20184C00B4000A99095900296ED10A9E30460B9902F064FC0D983146099A0C9B01F0ACF84C
:20186C000146122001295FD10A990919096800295AD10B980A9908180C900D9EB36FF06FD1
:20188C00F26900902A4D059C20460299A847B36FF06FF269009008980999A847B36FF06F2B
:2018AC000090049D284621462246214FB847B36FF06F00900798294622461D4DA8472F46EA
:2018CC00B36FF06F326A0090069D284621463C46B84728210A9F384602F020FCB36FF06F57
:2018EC000090384607992A46FFF716F8B36FF06F726A009038463946FFF70EF8B36FF06F53
:20190C000090039E304608990A46A0470C980B9902F004FC304639460E9A02F005FC00284A
:20192C0001D1152000E016200FB0F0BD4542000081070000FEB5002907D00D460646424F20
:20194C000020072F03D8014603E00020FEBD394608398D4277D800903C4800688047701E96
:20196C0008210642304600D00846072E00D80846E91D02910721364A1378002B18D1072FE5
:20198C0001D8002301E03B46083B002B03D1324B00241C600AE02F4B00249C602E4D2B60F4
:2019AC00072F01D8274600E0083F1F6001231370029A8A43029241420191421E264E3668CE
:2019CC00002E1AD037460837D31901990B409F423D4608D0344610341D46083DA54201D2FA
:2019EC001B18F9E71D4602996B1831680124A1437918994206D20836E1E7184800688047CC
:201A0C000098FEBD304602F065FBBD4211D0E81B0146083932683160E3431A40101A2043FC
:201A2C0019407418A060304602F060FA2046083000E030460446029901F06AFC074800680C
:201A4C00804720460830FEBD002000006C3600207C36002000000020103900207036002057
:201A6C00F0B585B00C4605463F4800688047204601F0EAFB00286ED0A668E36800212046AB
:201A8C006A5C491C002AFBD14269072422404F1E042A03900ED100243E46002E4BD02919A1
:201AAC000068324602F04AFA002848D4361A04190398F2E7029432469B1B0097002F35D050
:201ACC009F421E4600D83E464069029908400024022804930CD1284631460197174602F03F
:201AEC009FFB3A46019F002802D0401B461C012410462946324602F00DFD039881688A19E4
:201B0C008260BF1BAD19002C049B01D19B1BD5D1064601F088FD002818D17069202101430D
:201B2C007161B268F068831A3046C7E70F4800688047009F14E00D480068804710E00120E6
:201B4C008002039A51690143516104E0012080027169014371610548006880470020C7438D
:201B6C00384605B0F0BDC0466C36002070360020F0B597B01E4617460D4604461C98C0002D
:201B8C003B490A581292081840680068111812A816AA302302F0E6F9002826D10194169856
:201BAC0012990C1812A802AA13AB214600F04AFF00281AD10398072817D104982D49072286
:201BCC0002F0CCFA002810D1149808280DD115982949082202F0C2FA002806D112A816AA0E
:201BEC00214602F0D3F8002804D00020C443204617B0F0BD16994129F7D112984118A142F1
:201C0C00F3D101780429F0D1401C12901397BC1913A816AA3023214602F0A4F900260028FE
:201C2C00314615D1169813990818A04231460FD802A813A9224601F07DFC0028314607D1D2
:201C4C0002A8203013A9224601F074FC41424141F443202DCBD10029C9D000F0C4FB1298B9
:201C6C0002AA019901F03CFC044600F070FABEE75C4900006449000050490000F8B50028E0
:201C8C0072D00446394800688047083C38480025A04207D20168012291434118083105461B
:201CAC000846F5E7324A3349072901D98A18083A016801270B46BB43C6180836964200D95B
:201CCC000026A0424DD1C8074BD0002D0AD029683940284600D00020002E06D1002932D148
:201CEC0000260BE0002E2ED000203178C907314600D0002100280FD00E460546284602F094
:201D0C00E9F9002E0CD10120C043216801402A6808320240501813E0002500292F4612D0CE
:201D2C00304602F0D7F90120C043002F0FD0216801402A6810320240511832680240881868
:201D4C0028602C460AE020680121884305E03168014022680832024050182060204602F019
:201D6C00C5F8054800688047F8BDC0466C360020000000200020000070360020FEB504469E
:201D8C00C06F451C8027E551266C616D374B304602962A469847E259361DA800301801907C
:201DAC00A16D324B9847E259E8003518E16D28462E4B98472078801E03218140C81DE051F8
:201DCC0020462946FFF7FCFB606EA36FE16F0091274F29462A46B847A36FE16F206E626E60
:201DEC0000912946B847A36FE06F226E00902846019E3146B847A36FE06F626E009030469D
:201E0C000299B8476168A06F02F007F9A16FE26F204600F015FA216F0122204602F017FA70
:201E2C00A36FE16F226FA06E00913146B847A26FE36FA16E3046FEF7F7FDA16B20463246D3
:201E4C0002F07FF9E06E226FA36FE16F00912946B847A26FE36FE16E2846FEF7E5FDE16B89
:201E6C0020462A4602F06DF9FEBDC046D143000081070000F0B5FFB0FFB0D3B0054631A821
:201E8C000321018053A93B912D493A912D4939912D4938912D4937912D4936912D49359152
:201EAC002D4934912D4933912D4932912C305C2102F034F90920C44328684168412939D193
:201ECC0000680078042835D1082028901F9016900D900490686816A9091D224FB847A86849
:201EEC000DA9091DB847E86804A9091DB8472868006828AE311D401CB847286800681FAD9E
:201F0C00291D2130B84731A831462A46FFF740FC16280ED104A801900DA8009031A828A9E4
:201F2C001FAA16ABFEF7AEFD0024A52802D0E44300E0093420467FB07FB053B0F0BDC046EA
:201F4C00A0470000584700000C480000E8470000C44700007C4700003447000030480000AB
:201F6C0054480000C93D0000F0B585B01F4616460D4604463548006880472068401C03D018
:201F8C00042E07D0002F05D13148006880470020C5434EE00497029567696068211D03918D
:201FAC000025EB4300280DD0390704D5C0180193FFF764FE019B0398056045608560C56095
:201FCC00082087430120002E014600D03146072297430F436761049E310A00D006020298BA
:201FEC00002807D00498012804D00298401C039908600EE00193761C304602F04FFA0399E2
:20200C000860002818D008210F436761401C6060019B8119C918A060E16020610C4C206824
:20202C0080470A48006880470A480B49016020688047284605B0F0BD012080020743676171
:20204C00034800688047019DF3E7C0466C3600207036002058360020353C0000F0B587B0F9
:20206C000446806AA067616801F0D7FFE067002804D00246FF2803D9D22066E0082064E057
:20208C00A16F087AC00701D1DC205EE090000B185B68002B58D0D3005B18083304931D18B9
:2020AC000835561CB0002B1803931B180693069B1B1802931F1805972778BF1EBE40B600A4
:2020CC00059B9F19BB190193049B23646564039BA364069BE364029B2365059B6365A7651F
:2020EC00019BE3659B1906931D182E1837183B1818180590069820666566A666E7662367EF
:20210C0005986067204600F09BF8E16C204600F001F9A36FE26FE16C206E00920A46FEF7B4
:20212C00FBFBE06F400180216050226E656EA16E20462B4600F0F6FB0146E06F421C284630
:20214C0002F040F9992000E0302007B0F0BD7047F0B587B00C460746354805680026304643
:20216C0002F04CF9C0B206A901F060FB00285CD13846214601F0A4FA0125002852D02C202A
:20218C0060433918087CC0064CD40591002C1BD038464030397D02788A4215D808D3797D80
:2021AC0042788A4210D803D3F98A408888420BD20021384601F084FA002805D0069882684A
:2021CC00002100F083FC2DE0069B0496039602960127380201901748009030463146059D79
:2021EC002A46FFF707F801462A680698124B9A4211D1EA682B899B180DD2826893420AD2A9
:20220C000E4B1B6899420D4600D00125002C09D0994203D106E0002C03D08268002100F01E
:20222C0055FC3D46069801F009FF284607B0F0BD60360020A03300203DB8F3966436002074
:20224C00F0B585B00092049003918E68C8680024B51C07460346019067412846394632468F
:20226C0001F0B8FE02F020F905460F4602963246019B01F0AFFE02F017F905460F4632469C
:20228C00019E334601F0A6FE02F00EF902F01BF902F00AF902F017F9801C61412A463B4660
:2022AC00009F01F097FE039B03C3B800083BC1184968CA0F049D6A70002911D4194608310A
:2022CC00002202243B46002B1ED00D68ED43EE0F6D002C190C505641091D5B1E3446F2E7D7
:2022EC001946083101233A462546002A0CD00E68F643F6180E501D436B1E9D4173427341DA
:20230C002B40091D521EEFE7049803998167C76705B0F0BDFEB50D46044602200090029096
:20232C00E06F801C0299814202D201F0EDFFF6E701222046294601F08AFFA36F0833204695
:20234C0029462A4601F0B8FA02F00BF802D002F07FF801468020215002F0BFF802F07EF856
:20236C00E06F800000272F50029726468036E06FC10E09074942029A8A4228D201900198DC
:20238C0001280FDB0198800028580004019989004919891E098840180199890068500198F8
:2023AC00401EEBE728680004286001F0DAFF02D002F04EF80146316002F08FF802F04EF868
:2023CC00E06F80002F500298401C0290CFE700990291801C0299814204D201F095FF029052
:2023EC00E06FF6E7FEBD7047FEB524490A68012632430A6022490A6832430A6021490E6007
:20240C00B2020A60204C616C204A0A406264052161650821009001911D4900220425204691
:20242C002B4600F04FFC70031A490A6802430A601948436807221340022B01D002230371CE
:20244C0033030B62154B036003681340012B00D00670B3040F681F430F6081691140042973
:20246C0000D005760E4801683143016002A9204601F081FE0028F9D1FEBDC046906000400D
:20248C0014000040140002400000034000FEFFFF006CDC02003502403031004000000420C1
:2024AC000401034070B586B00D4604468168103902AA102300F02EFE002808D402A91022C2
:2024CC00204601F04BFC002803D0032011E001263CE000201F490B5C02AA125C9A4203D147
:2024EC00401C1028F7D113469A4201D0022000E001202870A168283901AA01262046334698
:20250C0000F008FE002821D401A9087802092A710F2202406A7001262046324601F01EFC6F
:20252C00002802D16878052803D30020287101206870A268A91C203A204601F0B2FA0028AB
:20254C0004D1E91C204601F097FF0646304606B070BDC0461C490000FCB5034604680D1B0A
:20256C005F20C043012D0ADB2678370608D4651C1D6026781660491B8E4200D80020FCBD0C
:20258C007F273E40761E032E31D8B60001A7BE59B746C046B1250000FF250000BD250000E9
:2025AC00D5250000022DEADB6678A51C1D60E1E7042DE4DBE5780195A7786678251D1D609E
:2025CC0033043C02E3180FE0052DD8DB25790195E5780095A7786678651D1D6033063C0410
:2025EC00E318009C24021B19019C1E19C2E7001FFCBD032DC3DBA6786778E51C1D603B0203
:20260C009E19B7E7F0B585B00026F743002834D004460068002830D0606800282DD0019398
:20262C0002910392216960690125814226D220684089002804D0E068814201D1091D216160
:20264C00606804AA042300F065FD002815D1A07A002803D0E068216981420FD220891249E2
:20266C0088420ED004A9098881420AD0206904A949880818011D2161D5E73D46284605B0A2
:20268C00F0BD0199002901D0049808802069001D0299086004A840880399088021694018A6
:2026AC00001D20613546E9E7FFFF0000F0B58B4200D1824204D90B0002000021002040E0D5
:2026CC00002B00D1002A0CD10B00020000210020002B00D1002A01D0C943C04300F0F1FABC
:2026EC002FE01C0015000B0002000CB4002126002F00FF19764102D2491C4029F9D10020F0
:20270C001E001700FF19764102D2401C4028F9D10E1A21002800320001F0BEFC0C000500E8
:20272C000CBC00200021A34200D1AA4201D3521BA341404149416D08E7073D436408761ECF
:20274C00F1D5059F002F01D03A607B60F0BD7047F0B589B0012407A9204601F09EFBFF2563
:20276C0000283FD1022005A901F097FB002839D105A8C178039107A98A780192CA780292FB
:20278C00007804900D780026184F3146122E26D0B85D042806D0052802D1012D02D11BE04F
:2027AC00A84219D1B8194278042A08D0052A03D1049A012A03D10FE0049B9A420CD1022996
:2027CC0002D2C278039B05E08278029B9A4203D10279019B9A4204D0B61D491CD6E72546EE
:2027EC0000E04579284609B0F0BDC046FA480000F0B585B00024E743002812D00E46002964
:20280C000FD0002A0DD0054603933089F1680918104604AA04230290019100F07BFC0028D4
:20282C0002D0384605B0F0BD708904A90988164B5A1C9142039A11D104A949888842F0D171
:20284C000199091804AA0423029800F063FC0028E7D104A80188039A0B4B01E00028E0D131
:20286C009942DED10A98A8722A812E60029868600199081D286170890818E86004A9498844
:20288C00401868612746CCE707690000FFB5836AFA2B03D8426D0192FA2A02D9002004B0C5
:2028AC00F0BD00252E462C4602952F46E200121D9C420DD3039434463E462F461D46019B70
:2028CC00029999422B463D4637462646039C21D2AE4209D00DD2022FE0D0476ABF58BE19DF
:2028EC000832641C0127E3E7466AB2585619641C02E0012FD2D00227014600900298C20067
:20290C0003920A6D0399521852685519401C02900098CBE701980299414063400B435842F9
:20292C005841BCE7F0B587B01E460F460446836FC06F0090084611460292FDF71BFF8020D8
:20294C0005942058049001200390C40700210A46002C2ED0002A06920DD00598836FC06F4F
:20296C00009030460D4639463A46FDF703FF294630463E460746254604980540002911D0F1
:20298C00002D11D00598836FC06F0090304606913946029AFDF7EEFE06993846039A374690
:2029AC00064603E0069A01E00025039A29436408CEE7384607B0F0BDFFB5029000921468D6
:2029CC00250C01931E68F7433F0C7D191C4FB743A4B2E419641C260CA81903900604A4B267
:2029EC0034190C60012087B2029AD46F651CBD421AD9BF00009AD459250C019AD2590E4695
:202A0C00D3431B0C5B190E4D9543A1B2039A120C891849190A0C9A180392130489B25A1894
:202A2C003146F251401CDEE7A0000A58521C01D0002003E0081800210160012004B0F0BD47
:202A4C00FFFF0000FEB51C4617460E46054602AA302301F087FA002800D0FEBD2868311A5C
:202A6C006522D243012929DB019201783A4602C20299461806232846314601F073FA0028A3
:202A8C00EBD12868B8607868296808182860B04216D00178401C2860224602C22846314667
:202AAC00FFF75AFD0028D8D12868A0606068296808182860B04207D00198FEBD901DFEBDD6
:202ACC000C21204601F002FC0020FEBDFEB51646029042685418417880291AD00020C24365
:202AEC007F2929D100900192A719154DBC4222D22E68002028601348026813482146904755
:202B0C002E6000060121C90264180028EED0019A12E00A490978002906D1007802A900F052
:202B2C0085FE0246002807D12046314600F07AF90122424000E0009A1046FEBD7836002080
:202B4C00244402405800000F8FA0E3B7F0B586B00593049280220290805882B20192000CA7
:202B6C00009000273C463D46009E0298C06F854226D2049A01CA04920391010C019A1346D3
:202B8C004B43DB1987B2104678430019059A10CA0592A2B28018020C9A18130C7143591844
:202BAC0092B27743230CFB189A18130CC9188CB20F0C110480B20818039901C16D1CD4E7B5
:202BCC0038042043086006B0F0BD7047FEB504460025EF430168481C06D002916669204609
:202BEC0000F021FD002802D03D462846FEBD0120000306400196207D000707D56068C019F3
:202C0C00FFF73CF860690821884360616560A560E560206800F0B8FC054627600198002832
:202C2C00E3D0064800688047029800010449081801F06CFC034800688047D6E76C360020FE
:202C4C00A037002070360020FEB517460C460646002C33D000F0C0FC002500282FD101F0E4
:202C6C0030F900282BD10095019702AFFE7002203870300AB870300C7870F0B20121090290
:202C8C00081A8442254600D3054601F001FC0421384601F0C1F800280CD1019F38462946EA
:202CAC0001F0BAF8002805D1641BAE197F1901F0E9FBCDE701F0E6FB009D00E0012528461D
:202CCC00FEBD7047FEB50291012109024458174D2540099C641E0F26264016432E4346507C
:202CEC0010221A4346187260124908980027884201D8019702E00E49491C0191F1680E4CC9
:202D0C000C4045000298294600F018FE810A01D0384601E0401E80B201996118029AAA4221
:202D2C0000D238460143F160FEBDC04690FCFFFFFFFF0000FF083D0000FCF0FFBCB5184859
:202D4C00019001F0A5FB01A8042101F065F8002802D001F097FB09E0124C0221204600F0EC
:202D6C00D9FE054601F08EFB002D01D00020BCBD627823780C490C462068002807D02579D3
:202D8C00AB4202D16579AA4203D00834F4E7203100E02146054A1160411E8841BCBDC046B4
:202DAC0090FFFF00143900200C47000074360020FEB515460290426856184178802913D0F2
:202DCC0000277F290ED1144801680191076013480468134829463246A04701990E4A116028
:202DEC0000280DD0F843FEBD0A490978002908D1007802A91C4600F019FD2346002800D00A
:202E0C00FEBD304619462A46FFF71EFF014601204840FEBD78360020244402406000000F01
:202E2C008FA0E3B7F8B56A46202313704118174D0540E843081816494018070B0026B74265
:202E4C001ED000F0C9FB00281AD101F03AF8002816D16C460020E070280AA070280C607017
:202E6C0001F016FB0421204600F0D6FF044601F009FB002C04D106484019451C761CDEE755
:202E8C00BE4201D20020F8BD0120F8BD00F0FFFFFF0F00001CB518481221FFF7A5FA06208D
:202EAC00164900F01BFE01F0EDFA01ACAB20207001F0EEFA0121204600F0AEFF044601F085
:202ECC00E1FA002C11D11920000169460880009868460088002804D00098401E6946088095
:202EEC00F6E700F079FB002803D000F07EFF00201CBDFFF723FF1CBD00093D0001020020CA
:202F0C00F8B50446154F38688047002C07D0204600F089FB04461248006880471CE0002413
:202F2C00104D009410480068844211DA2868401C0BD038688047284600F075FB064608488B
:202F4C00006880470098304300901835641CE9E7034800688047009C2046F8BD6C3600200B
:202F6C0070360020A03400206836002070B514460D4606461648006880473068401C1FD03F
:202F8C00012C08D1307DC00605D5B068002802D040193169451A304600F045FB0520400261
:202FAC0071698143716130682946224600F0B2FF0446084800688047601C06D0002404E062
:202FCC000448006880470020C443204670BDC0466C36002070360020FEB504460068002697
:202FEC00815D002903D03A2903D0761CF8E7144D23E08719124D20D0082E00DB0826002E84
:20300C0011D06A46314603781370002B05D0521C491E401C0029F6D105E0022903D3501C2B
:20302C00491E01F07BF868460021815500F0E2FC002802D0791C216005462846FEBDC046BC
:20304C0090350020F8B517460E460546144800688047380A134CE071A771300E6071300CF6
:20306C002071300AE070A670280A60702570F420002521462A462B4600F00AFE204629462E
:20308C0000F0ECFDE578A678277864780648006880472002C0193104401829064018F8BD14
:2030AC006C360020083900207036002070B59AB00D46064614480068804701AC20463146F8
:2030CC0001F0A3F9304601F0B5F906460019401C294601F09AF9284601F0ACF93018831CA3
:2030EC00F7200A4D2946224600F0D2FD0021284600F0B4FD2C786D78054800688047280261
:20310C00001900B21AB070BD6C3600200839002070360020F8B51C461546009042685618E6
:20312C004178802908D000277F2912D128463146224601F0EFF91CE00F4F397800290AD063
:20314C0000F053FEFFF7A6FE00280BD00120387008E0FF430DE00078694600F067FB0746DF
:20316C00002806D1304621462A4600F03BFB012747403846F8BDC04678360020F0B5184A14
:20318C000378401C0024082CFAD00578DE070DD12D0147783E0976190F253D40ED1C122D2E
:2031AC000AD185782F0609D4C01C0DE0401C0D70491C641C5B08E6E7801C06E07F273D40BD
:2031CC00C778FF017D19001D1235964207D0F643002DEED08F5D0F706D1E491CF8E7F0BDF0
:2031EC00FF0F0000FCB58023C45880300023DF43944205D90B68541C0460A740BB431AE076
:20320C00521C161B1F25730901952E40DBB29B000093CB58F3403D46A540AB433519212D3C
:20322C0009D3019D2A409740009D69184968B943A21A9140CB18611EDA0703D10160491E90
:20324C005B08F9E7D8B2FCBD10B5044601680020491C25D06269D10623D4100605D5002140
:20326C000222204601F04EF96269900604D4500602D52020024362616168012000290DD1E1
:20328C00042111400AD1072002400120030200212046FEF769FE014640424841E168216142
:2032AC0010BD012189020A43626110BDF8B515460022164E131D102B0ED0B458227882426A
:2032CC001A46F7D1627801200027802A07D07F2A19D10091C60204E00020C043F8BD0091DE
:2032EC000603A0683018401E314600F027FB6168874204D042C5891900357F1CF8E700992B
:20330C0008600020F8BDF843F8BDC0460C490000F8B50446026801251046A843401A1028BF
:20332C0021D366180838B060A8430836371808370E480F4A072A01D910180838009187428C
:20334C000DD23878C0070AD1384600F0C3FEE8433968014032680832024050183060304670
:20336C0000F0C4FD009A2A432260F8BD0000002000200000F0B587B0059303920491012053
:20338C0001908002069000240D9F0C98029000940F4DBC4219D2059821183E1B0698864204
:2033AC0000D3069E04982A463346FFF7B3FE002809D10298211803982A463346FFF7F8FC1B
:2033CC0034190028E5D0019800E0009807B0F0BDA02F0020F8B514460F46064611480068EA
:2033EC008047380A104DE870AF70200A68702C700023F05C5B1C0028FBD1F0202946324675
:20340C0000F046FC0021284600F028FC2E786D780648006880472802801900B2002800D452
:20342C002046F8BD6C3600200839002070360020F8B517460C460546104800688047380A0C
:20344C0001D001200702380A0D4EF070B770280A70703570F22000223146134600F018FC82
:20346C003046214600F0FAFB347875780548006880472802001900B2F8BDC0466C360020F7
:20348C000839002070360020F8B515460C460646104800688047280A01D001200502280A6F
:2034AC000D4FF870BD70300A78703E70F320394622462B4600F0ECFB0021384600F0CEFBA5
:2034CC003C787D780548006880472802001900B2F8BDC0466C360020083900207036002022
:2034EC00F0B599B014460191074602AE04203070701C202539462A4601F00CF830462130A9
:20350C00203739462A4601F005F817AD41222846314601F003F80198149013951594203491
:20352C00169413A8FEF7A6FC002801D00020C04319B0F0BD7CB515460C46064601AA0223F7
:20354C000846294600F00EFD01461F20C043002901D01D307CBD019D202D05D321684919F0
:20356C0009182022304608E02020411B304600F0D5FD701B203021682A4600F0CBFF206894
:20358C004019206000207CBD70B50026F44300281AD40546092817DC0C4800688047E8007B
:2035AC000B4A115800290CD015186868096988470446401C05D028682E60418901229143A4
:2035CC004181044800688047204670BD6C3600200836002070360020BCB501A80521017078
:2035EC0000F056FF00F010FE00F04CFF00F050FF01A80124214600F00FFC6846214600F0CD
:20360C0089FA054600F03EFF002D03D10098400002248443002CE9D0022C01D10020BCBD5F
:20362C000120C043BCBD70B504460026F5430068411C16D0616863699A060AD5002908D054
:20364C00A268521A05D000F079FC00280BD463696168A1602161580602D530208343636180
:20366C003546284670BD01208002616901436161F7E77047F8B500F03BFD00F093FE01A821
:20368C0000F078FE002816D1019800680B49884211D17D2082000F20032100F047FB01986B
:2036AC00008903990A5882F30888081840688047002004B080BD00F0E0FCC0463DB8F39682
:2036CC00F8B50E4605460024204600F097FEC0B2694600F0ABF8002801D0E043F8BD009866
:2036EC0000F058FE0746009800F0A8FC2C20704328182146042C03D0425C4C1CBA42F8D08C
:20370C000020042900D2C043F8BDF0B58023C3581C0C15682E0CA4199BB2ADB25D192B0C6E
:20372C00E3181C04ADB264190C600124E5B21B0CC66FAE420CD9AD005659370CB6B2F61818
:20374C00330CDB191F04B6B2BE194E51641CEDE71846F0BDB0B505460D4800688047280A64
:20376C000C4C60702570F120002521462A462B4600F08EFA2046294600F070FA25786478E2
:20378C000548006880472002401900B2B0BDC0466C3600200839002070360020B0B5044669
:2037AC000D48006880470023E05C5B1C0028FBD1F5200A4D2946224600F06AFA0021284689
:2037CC0000F04CFA2C786D780548006880472802001900B2B0BDC0466C3600200839002017
:2037EC0070360020FEB516460D460746FFF7F4FE0024002818D1019502ADEF7003202870CC
:20380C00380AA870380C687000F042FE0421284600F002FB002805D13046019900F07AF905
:20382C004442444100F02EFE2046FEBD70B500220E4B1446261D102E15D01D592C788442F4
:20384C003446F7D10D6068780024802809D1084D2878002805D1FFF71DFB0121484001D1AA
:20386C002970204670BDD04370BDC0460C49000078360020F8B516460C46054600F0D3FD41
:20388C000746204600F0CFFD3818263000F006FE002808D00746009605492A46234600F019
:2038AC0055F9384600E0034800F096FCF8BDC046A24600008A460000FEB500AC0EC4014698
:2038CC0000252846AEB2CF6FB74215D9B600019A97593C0C029A93591A0C1219BCB22018BC
:2038EC009BB2C018030CD218130480B21818009B9851100C6D1CE5E7FEBD704770B50B4846
:20390C000B4C84420ED00B4D0B48461B002E09D003CD02789200A258401C083D9047083EF9
:20392C000835F3E700BF00BF70BDC046F4490000E8490000004A0000104A00001CB50A00C6
:20394C0017D000230124E407A04200D20400944201D95200FBE790425B41904200D3801AF8
:20396C00914201D25208F6E719000200080011001CBD01000020FFF728F91CBDF0B51F2359
:20398C00134080240659F4185209D2B292008958D9400025ED432F46B740B943212C09D368
:2039AC00203CA540006C10184068A8432022D21A90404118C8B2F0BDF8B516460091054630
:2039CC0000240746022C0AD0284621463A46334600F0F4F8002804D12C37641CF2E70020DF
:2039EC00F8BD009A002A014600D11146002C00D00846F8BD70B5014602780020002A13D0C1
:203A0C000A4B1A4628321C467834A2420CD000240D5D165D751B002E03D0641C002DF7D0B7
:203A2C00F0E7002DEED1104670BDC04690350020FCB4020C0B0CFF242402FF342040214037
:203A4C000C00444315005D4306005E430F005743320C3B0CA818C01832043B040025A11852
:203A6C006841C9186841FCBC704770B510CAC36F5B1C9C4200D823460C461D46002D03D01C
:203A8C0040CA40C46D1EF9E79A0089181A46C46F641CA24203D2002410C1521CF7E71846FB
:203AAC0070BD70B50C4605460126114622463346FFF730FB00280ED401222846214600F099
:203ACC004DF9002801D0032003E02078012800D0022020700026304670BDFEE770B58A07EE
:203AEC00094A08D401230C461C40C5B2074EAC558340136002E0012383401361072291437C
:203B0C008000034A815070BD103502400031024000310040F8B50C4605460B4E002C0FD0B5
:203B2C0000273046394600F0A8FB00280AD06946304600F097FB009828706D1C641EEDE712
:203B4C000020F8BDF843F8BD0000034082B0F8B5069207930291019006A9039107480090FA
:203B6C0002A801AA064BFDF741FA0021019A117004B080BC02BC02B00847C046FD41000034
:203B8C00DD440000F0B58023C358DC431368DD430023641B0C601C465C410125EEB2C76FD2
:203BAC00B74209D9B6009759E7191C465C417F1E8F515C416D1CF1E7E043F0BD1CB5144603
:203BCC00002000F01BFCC0B201A9FFF72FFE002801D0012408E00198002120232246FFF712
:203BEC0099FA0446401E8441019800F027FA20461CBDFEE7F8B50D460446C06F421C80276D
:203C0C00E251616D074E2846B047E25990002D18A16D2846B047E25990002818E16DB0470A
:203C2C00F8BDC046D143000070B50A4C2046FEF7CDFF18340125084E3068854208DA206876
:203C4C00002802D42046FEF7C1FF18346D1CF3E770BDC046A034002068360020B0B50B4AF1
:203C6C0013680024082C04D015192D790555641CF8E7002908D00C32002B05D010780870C5
:203C8C00521C5B1E491CF7E7B0BDC0468036002070B50B4C207123600020082804D00D5C88
:203CAC0026187571401CF8E70D34002B05D010782070641C5B1E521CF7E700BF70BDC04609
:203CCC0080360020BCB50D460446FA200190012901D0502000E02420225801A92846FFF732
:203CEC00E5FA002800D0BCBD012D01D0542100E02821019A6250BCBD04460948006880473B
:203D0C00084D6968002901D0204688472868002800D0804704480068804700F00FFCC04677
:203D2C006C3600205836002070360020F8B514460091012686400027074D0098874209D205
:203D4C002E60204600F0B8FA2E61204600F0B4FA7F1CF2E7F8BDC04610320240B0B50D46C3
:203D6C0001460020002D10D01446002A0DD0084600F010FB014660426041002C05D06A1C08
:203D8C00641E2B788B421546F5D0B0BDB0B515460446032300F0E6F8002800D0B0BD2968A4
:203DAC00481E28606720C0430229F7D321684A1C226009780029F1D10846B0BD70B51F307E
:203DCC000322D2430023202B0ED0841865782D06A67836047519E6783602AD1900782818AB
:203DEC00C8501B1D2046EEE770BD1CB501ACB920207000F04DFB0121204600F00DF800F073
:203E0C0041FB0024092C04D8641CFEF797FF0028F8D1FFF772FD1CBD7CB50C460546084EC7
:203E2C00002C0AD02978304600F03CFA01A9304600F018FA6D1C641EF2E700207CBDC046CE
:203E4C00000003401CB5019007480068804701A8FFF7C2F8016A019888470446034800680A
:203E6C00804720461CBDC0466C36002070360020B0B5044601252946FFF724FF00280AD142
:203E8C0002212046FFF71EFF002804D1206A00F04DFAE06500252846B0BD1CB50C46C0B2E2
:203EAC0001A9FFF7C3FC002801D0012407E001982146FEF7F7FA0446019800F0BFF82046BC
:203ECC001CBD1CB501AC0620207000F0E1FA01212046FFF7A1FF002801D1044601E0022099
:203EEC00C44300F0CFFA20461CBDFEE7B0B5016801229143064B1C68002C06D025689543D1
:203F0C008D4202D208342346F5E784601860B0BD10390020B0B503460020C043002B0AD465
:203F2C00092B08DCDC00044D2B59002B03D028194068DB699847B0BD08360020B0B5034629
:203F4C000020C043002B0AD4092B08DCDC00044D2B59002B03D0281940689B699847B0BD29
:203F6C000836002070B5044605684E1B6120C043012E08DB2E789E4204D1681C2060204637
:203F8C00FEF7EAFA70BD801C70BDB0B504460020002B09D0D2B20D782570954205D0641CA9
:203FAC005B1E491C002BF6D1B0BD601CB0BD0000074880F3088800BF00BF00F0BDFA002830
:203FCC0001D0FFF79BFC00F077F80120FFF794FE0090002030B514004C4325001C0044436F
:203FEC006419050010002900FFF722FD001904000D002100280030BD10B5002A0BD00C7837
:20400C000378A34205D1521E401C491C002AF6D11C46181B10BD002010BDB0B504C9002398
:20402C00036043600830531C01249C4203D220C920C0641CF9E71046B0BD000010B5407886
:20404C00802807D1044C2078012803D1FFF7CDFE0020207010BDC04678360020A06AE16F83
:20406C00CA0010188A0080182278921E059B93405B1D4A1C53439900704700F039F80E244C
:20408C000A2132222046FFF751FE7D20C20002212046FFF74BFEF2E718B520239B1A04D849
:2040AC00010000205B42994004E004009140DC402143904018BD000080B50020044A002AB2
:2040CC00014601D001CA1146FFF7D4FA80BDC04680490000054A1368002B06D011461A4648
:2040EC0008328342F7D18068086070471039002001208103044A13680B431360C003116812
:20410C00014311607047C046003502400B4611461A4680B500F095F980BDC0460A4600213B
:20412C0080B500F08EF980BDB0B50023002A05D010C820C965402B43521EF7E758425841AE
:20414C00B0BD10B5C36F08C10024C36F9C4203D208CA08C1641CF8E7184610BD10B50C78AF
:20416C000378A34205D1521E401C491C002AF6D11C46181B10BD0522920183181B6A5B073D
:20418C0003D4805808600120704700207047000080B50146024802680248904780BDC046B9
:2041AC008000000F4038002080B50348026803480021904780BDC0467800000F403800203D
:2041CC0080B50A460146024803680248984780BD7C00000F40380020044C30342146FDF7BA
:2041EC003FFC2046FEF78CFE00F0A8F9A0340020B0B514460D460146286800F08BF9286821
:20420C00001928602046B0BD1CB5044C01A92046FFF7B1FF0028F9D11CBDC0460000034033
:20422C0002460020002906D013780A2B02D0491E521CF7E71046704710B504C91346002BA3
:20424C0003D010C910C05B1EF9E7104610BD04C10122C36F5B1C9A4203D2002308C1521CBE
:20426C00F7E7704710B50522920113462033C4586407FCD48058086010BD15221201831829
:20428C001B699B0701D4002070478150012070470022002903D008C81A43491EF9E7504273
:2042AC005041704710B51522120113461033C458A407FCD5815010BD03494143002902D0FE
:2042CC0000BF491EFAE77047AA0F000080B50A4602490B680021984780BDC0467849000014
:2042EC0003228058002804D000220A70491C401EF8E7704740B584B002AE0096FEF7D6F991
:20430C00029A039B04B040BD02988000A16F0A58D2430A500298401C7047A06AE16FCA00DA
:20432C0010188A0080184A1CD10070474078802802D00020C043704701200003704710B58D
:20434C0000239A4203D0CC5CC4545B1CF9E710BD80B50B4603214258C11D184600F0DAF8D9
:20436C0080BDA26FE06F8000295882185268002A7047000080B501460148FCF7F1FC80BD7C
:20438C00A838002001220A40014942547047C0460031024040787F38022801D30020704750
:2043AC00FF20704701208003014908607047C04610320240EFF3108072B6FDF7E8F9FFF71F
:2043CC00F7FDFEE7002A03D008C908C0521EF9E7704738463268910078186D1C2778704743
:2043EC00A36FE16F206FE26D0091D2197047002903D0002204C0491EF9E77047022901D85A
:20440C00481C70470020C04370470A780270401C491C002AF9D170470021425C491C002AED
:20442C00FBD1481E70470021425C491C002AFBD1481E70470021425C491C002AFBD1481ED0
:20444C00704700239A4202D0C1545B1CFAE770474019001F0068524200234BE7A26F083290
:20446C00204629462B46FFE782B00094014C019410BD00BF592B000080B58268183AFFF7E5
:20448C0010FB80BD80B506200121FFF77BFF80BD80B506200021FFF775FF80BD80B50146FF
:2044AC000820FDF747FA80BD801C61412A463B4690E59259A36FE76F009770479259A36F14
:2044CC00E56F0095704705460F46029A334681E50A68531C0B6010707047204629462A464D
:2044EC0000E0000082B00094014C019410BD00BF17370000802280580860704780B5FFF78A
:20450C007BFD80BD80B5FEF731FD80BD80B5FFF799FC80BD80B5FFF712FF80BD06C0704752
:20452C00006870470095FFE782B00094014C019410BD00BF810700000120704700BFFEE79D
:20454C00000102030400010203040001020304000102030400010203040001020304000112
:20456C000203040001020304000102030400010203040001020304000102030401010101F0
:20458C000102020202020303030303040404040400000102030000010203000001020300CF
:2045AC000001020300010203040001020304000102030400010203047263203D3D20300002
:2045CC00433A2F74692F73696D706C656C696E6B5F6363323378785F73646B5F375F31306E
:2045EC005F30305F30395F656E672F736F757263652F74686972645F70617274792F6D63F7
:20460C0075626F6F742F626F6F742F626F6F747574696C2F7372632F6C6F616465722E6333
:20462C000030003059301306072A8648CE3D020106082A8648CE3D030107034200042ACB05
:20464C00403CE8FEED5BA44995A1A91DAEE8DBBE1937CD14FB2F245737E5953988D994B91E
:20466C00D65AEBD7CDD5308AD6FE48B24A6A810EE5F07D8B6834CC3A6AFC538EFAC16D6180
:20468C006C6C6F63206661696C656420696E2061737365727400417373657274696F6E205E
:2046AC006661696C65642C20282573292C2066696C652025732C206C696E652025640A0009
:2046CC002E000000000000000101010101020202020202020202020303030303030303036C
:2046EC00030405040404040504040404050404040405040404000000000001010101010052
:20470C0000002000C215000000001000C214000000000800EF12000000000400EF110000A3
:20472C00000000000000000008000000FCFFFFFFFFFFFFFFFFFFFFFF000000000000000074
:20474C000000000001000000FFFFFFFFFCFFFFFFFFFFFFFFFFFFFFFF03000000000000005C
:20476C000000000004000000FCFFFFFF00000000080000004B60D2273E3CCE3BF6B053CC3C
:20478C00B0061D65BC86987655BDEBB3E7933AAAD835C65ADFBDC42962DF9CD89030847850
:2047AC00CD05F0ACD62E21F7AB20A2E5344887041D0630DC000000000800000096C298D80B
:2047CC004539A1F4A033EB2D817D0377F240A463E5E6BCF847422CE1F2D1176B08000000BC
:2047EC00F551BF376840B6CBCE5E316B5733CE2B169E0F7C4AEBE78E9B7F1AFEE242E34F8C
:20480C000300000000000000FFFFFFFFFBFFFFFFFEFFFFFFFFFFFFFFFDFFFFFF04000000A0
:20482C000000000008000000512563FCC2CAB9F3849E17A7ADFAE6BCFFFFFFFFFFFFFFFF36
:20484C0000000000FFFFFFFF08000000FFFFFFFFFFFFFFFFFFFFFFFF000000000000000054
:20486C000000000001000000FFFFFFFF30313233343536373839616263646566003031323A
:20488C003334353637383941424344454600000100010001000100010001000001010001F4
:2048AC000001000100010101010100000000000000000000000000000000020304050000D7
:2048CC000000000101000000000000000000000000000000000000010001000001010001C5
:2048EC00000100010001000100010001000104010403040204010401040301030304010472
:20490C002C49000038490000444900000000000077C295F360D2EF7F3552500F2CB67980E6
:20492C00007F00000000000000600000017F00000060000000D00300028000000000000057
:20494C0000D003002A8648CE3D030107000000002F4600007C4900002A8648CE3D0201002A
:14496C000303010203030000010000004F4400005B00000039
:0849800000000000000000002F
:20498800005500000FA12912FFE001FFEF0122FFE0F502FFEF0124FFEFA3010200E133FF4E
:2049A8000000613700003D34F7000095003051300000E5A900F0B90070FFEF3E90350041D0
:2049C80020007515B100F114BF02FFEF1EFF00001AFFE103FFE07F360033FFE6FFF000000B
:2049E800893100005D430000ED42000000000000020000009602000088490000002000207B
:084A0800F8490000803600208F
:020000044E02AA
:20000000FFFFFFFF000000000000000000000000FFFFFFFFFFFFFFFFAAAAAAAA0F00000035
:20002000FFFFFFFFFFFFFFFF00000000073F00000000000000000000000000000000000082
:200040000000000000000000000000000000000000000000000000000000000000000000A0
:20006000000000000000000000000000000000000000000000000000000000000000000080
:20008000000000000000000000000000000000000000000000000000000000000000000060
:2000A000000000000000000000000000000000000000000000000000000000000000000040
:2007C000000000000000000000000000000000005AA500000101020305080D156DD7E43686
:2007E000EBF431DF95AE15EE03BA8EE4C4C63FD8453F675E74D7C2012C9058E500000000A4
:00000001FF
